:1000000019C033C032C031C030C02FC02EC02DC087
:100010002CC02BC02AC029C028C027C027C025C09B
:1000200024C023C022C021C020C01FC01EC01DC0CC
:100030001CC01BC011241FBECFEFD4E0DEBFCDBF5C
:1000400011E0A0E0B1E0E2EAF2E002C005900D921A
:10005000AA30B107D9F711E0AAE0B1E001C01D92C2
:10006000AD30B107E1F79ED01AC1CACF1F920F92EF
:100070000FB60F9211242F938F939F9380910B01B2
:1000800090910C010A9690930C0180930B01809142
:100090000B0190910C018C52914020F010920C01B8
:1000A00010920B019F918F912F910F900FBE0F9087
:1000B0001F901895CF93DF93582F20910101309115
:1000C0000001A0E0B0E0C0E1D7E261C05523E1F05B
:1000D000E22FF0E0513059F58BB1837C8BB99BB1A5
:1000E000EE5FFE4F8081880F880F892B8BB94423E8
:1000F00031F42F5F283009F046C020E044C0215081
:1001000008F041C027E03FC088B1807F88B998B12E
:10011000E32FF0E0EE5FFE4F8081982B98B9E32F3C
:10012000E150442311F43E2F25C03E2F27C08BB150
:10013000837C8BB99BB1EE5FFE4F8081880F880F67
:10014000892B8BB9442329F42F5F283029F420E030
:1001500003C0215008F427E088B1807F88B998B1A6
:10016000E32FF0E0EE5FFE4F8081982B98B9442397
:1001700021F431503F3F39F405C03F5F383019F466
:1001800030E001C037E0CE010197F1F71196A617D4
:10019000B70708F49BCF2093010130930001DF9152
:1001A000CF9108950F931F93CF93DF939FEF95B94E
:1001B00022E024B980EF88B98FE087B99BB98FE33B
:1001C0008AB910928500109284008FE690E0909397
:1001D00089008093880080E48093800089E0809388
:1001E000810016BC88E787BD84E084BD85E085BDBD
:1001F00020936E00789488B1807F88B98BB1837C1E
:100200008BB908EC10E0C0910B01D0910C01CC59D6
:10021000DF4F82E061E070E040E04CDF35991EC0C6
:1002200088E893E1F8013197F1F70197D9F782E077
:100230006CE271E041E03EDF88E893E1F80131973C
:10024000F1F70197D9F781E0BE0140E033DF88E89C
:1002500093E1F8013197F1F70197D9F73499D3CFAA
:1002600088E893E1F8013197F1F70197D9F782E037
:100270006CE271E041E01EDF88E893E1F80131971C
:10028000F1F70197D9F780E0BE0140E013DF88E87D
:1002900093E1F8013197F1F70197D9F7B4CFF894CA
:0202A000FFCF8E
:0A02A200070801030206040C080916
:00000001FF
